{
  "_format": "hh-sol-artifact-1",
  "contractName": "Web3Mint",
  "sourceName": "contracts/Web3Mint.sol",
  "abi": [
    {
      "inputs": [],
      "stateMutability": "nonpayable",
      "type": "constructor"
    },
    {
      "anonymous": false,
      "inputs": [
        {
          "indexed": true,
          "internalType": "address",
          "name": "owner",
          "type": "address"
        },
        {
          "indexed": true,
          "internalType": "address",
          "name": "approved",
          "type": "address"
        },
        {
          "indexed": true,
          "internalType": "uint256",
          "name": "tokenId",
          "type": "uint256"
        }
      ],
      "name": "Approval",
      "type": "event"
    },
    {
      "anonymous": false,
      "inputs": [
        {
          "indexed": true,
          "internalType": "address",
          "name": "owner",
          "type": "address"
        },
        {
          "indexed": true,
          "internalType": "address",
          "name": "operator",
          "type": "address"
        },
        {
          "indexed": false,
          "internalType": "bool",
          "name": "approved",
          "type": "bool"
        }
      ],
      "name": "ApprovalForAll",
      "type": "event"
    },
    {
      "anonymous": false,
      "inputs": [
        {
          "indexed": false,
          "internalType": "address",
          "name": "sender",
          "type": "address"
        },
        {
          "indexed": false,
          "internalType": "uint256",
          "name": "tokenId",
          "type": "uint256"
        },
        {
          "indexed": false,
          "internalType": "uint256",
          "name": "maxId",
          "type": "uint256"
        }
      ],
      "name": "NewEpicNFTMinted",
      "type": "event"
    },
    {
      "anonymous": false,
      "inputs": [
        {
          "indexed": true,
          "internalType": "address",
          "name": "from",
          "type": "address"
        },
        {
          "indexed": true,
          "internalType": "address",
          "name": "to",
          "type": "address"
        },
        {
          "indexed": true,
          "internalType": "uint256",
          "name": "tokenId",
          "type": "uint256"
        }
      ],
      "name": "Transfer",
      "type": "event"
    },
    {
      "inputs": [
        {
          "internalType": "address",
          "name": "to",
          "type": "address"
        },
        {
          "internalType": "uint256",
          "name": "tokenId",
          "type": "uint256"
        }
      ],
      "name": "approve",
      "outputs": [],
      "stateMutability": "nonpayable",
      "type": "function"
    },
    {
      "inputs": [
        {
          "internalType": "address",
          "name": "owner",
          "type": "address"
        }
      ],
      "name": "balanceOf",
      "outputs": [
        {
          "internalType": "uint256",
          "name": "",
          "type": "uint256"
        }
      ],
      "stateMutability": "view",
      "type": "function"
    },
    {
      "inputs": [
        {
          "internalType": "uint256",
          "name": "tokenId",
          "type": "uint256"
        }
      ],
      "name": "getApproved",
      "outputs": [
        {
          "internalType": "address",
          "name": "",
          "type": "address"
        }
      ],
      "stateMutability": "view",
      "type": "function"
    },
    {
      "inputs": [],
      "name": "getTotalMintCount",
      "outputs": [
        {
          "internalType": "uint256",
          "name": "",
          "type": "uint256"
        }
      ],
      "stateMutability": "view",
      "type": "function"
    },
    {
      "inputs": [
        {
          "internalType": "address",
          "name": "owner",
          "type": "address"
        },
        {
          "internalType": "address",
          "name": "operator",
          "type": "address"
        }
      ],
      "name": "isApprovedForAll",
      "outputs": [
        {
          "internalType": "bool",
          "name": "",
          "type": "bool"
        }
      ],
      "stateMutability": "view",
      "type": "function"
    },
    {
      "inputs": [
        {
          "internalType": "string",
          "name": "name",
          "type": "string"
        },
        {
          "internalType": "string",
          "name": "imageURI",
          "type": "string"
        }
      ],
      "name": "mintIpfsNFT",
      "outputs": [],
      "stateMutability": "nonpayable",
      "type": "function"
    },
    {
      "inputs": [],
      "name": "name",
      "outputs": [
        {
          "internalType": "string",
          "name": "",
          "type": "string"
        }
      ],
      "stateMutability": "view",
      "type": "function"
    },
    {
      "inputs": [
        {
          "internalType": "uint256",
          "name": "tokenId",
          "type": "uint256"
        }
      ],
      "name": "ownerOf",
      "outputs": [
        {
          "internalType": "address",
          "name": "",
          "type": "address"
        }
      ],
      "stateMutability": "view",
      "type": "function"
    },
    {
      "inputs": [
        {
          "internalType": "address",
          "name": "from",
          "type": "address"
        },
        {
          "internalType": "address",
          "name": "to",
          "type": "address"
        },
        {
          "internalType": "uint256",
          "name": "tokenId",
          "type": "uint256"
        }
      ],
      "name": "safeTransferFrom",
      "outputs": [],
      "stateMutability": "nonpayable",
      "type": "function"
    },
    {
      "inputs": [
        {
          "internalType": "address",
          "name": "from",
          "type": "address"
        },
        {
          "internalType": "address",
          "name": "to",
          "type": "address"
        },
        {
          "internalType": "uint256",
          "name": "tokenId",
          "type": "uint256"
        },
        {
          "internalType": "bytes",
          "name": "data",
          "type": "bytes"
        }
      ],
      "name": "safeTransferFrom",
      "outputs": [],
      "stateMutability": "nonpayable",
      "type": "function"
    },
    {
      "inputs": [
        {
          "internalType": "address",
          "name": "operator",
          "type": "address"
        },
        {
          "internalType": "bool",
          "name": "approved",
          "type": "bool"
        }
      ],
      "name": "setApprovalForAll",
      "outputs": [],
      "stateMutability": "nonpayable",
      "type": "function"
    },
    {
      "inputs": [
        {
          "internalType": "bytes4",
          "name": "interfaceId",
          "type": "bytes4"
        }
      ],
      "name": "supportsInterface",
      "outputs": [
        {
          "internalType": "bool",
          "name": "",
          "type": "bool"
        }
      ],
      "stateMutability": "view",
      "type": "function"
    },
    {
      "inputs": [],
      "name": "symbol",
      "outputs": [
        {
          "internalType": "string",
          "name": "",
          "type": "string"
        }
      ],
      "stateMutability": "view",
      "type": "function"
    },
    {
      "inputs": [
        {
          "internalType": "uint256",
          "name": "_tokenId",
          "type": "uint256"
        }
      ],
      "name": "tokenURI",
      "outputs": [
        {
          "internalType": "string",
          "name": "",
          "type": "string"
        }
      ],
      "stateMutability": "view",
      "type": "function"
    },
    {
      "inputs": [
        {
          "internalType": "address",
          "name": "from",
          "type": "address"
        },
        {
          "internalType": "address",
          "name": "to",
          "type": "address"
        },
        {
          "internalType": "uint256",
          "name": "tokenId",
          "type": "uint256"
        }
      ],
      "name": "transferFrom",
      "outputs": [],
      "stateMutability": "nonpayable",
      "type": "function"
    }
  ],
  "bytecode": "0x6080604052601e6006553480156200001657600080fd5b506040518060400160405280600381526020017f4e465400000000000000000000000000000000000000000000000000000000008152506040518060400160405280600381526020017f6e6674000000000000000000000000000000000000000000000000000000000081525081600090805190602001906200009b929190620001d4565b508060019080519060200190620000b4929190620001d4565b505050620001026040518060400160405280601881526020017f54686973206973206d79204e465420636f6e74726163742e00000000000000008152506200010860201b62000b831760201c565b620003b1565b620001a8816040516024016200011f919062000328565b6040516020818303038152906040527f41304fac000000000000000000000000000000000000000000000000000000007bffffffffffffffffffffffffffffffffffffffffffffffffffffffff19166020820180517bffffffffffffffffffffffffffffffffffffffffffffffffffffffff8381831617835250505050620001ab60201b60201c565b50565b60008151905060006a636f6e736f6c652e6c6f679050602083016000808483855afa5050505050565b828054620001e2906200037b565b90600052602060002090601f01602090048101928262000206576000855562000252565b82601f106200022157805160ff191683800117855562000252565b8280016001018555821562000252579182015b828111156200025157825182559160200191906001019062000234565b5b50905062000261919062000265565b5090565b5b808211156200028057600081600090555060010162000266565b5090565b600081519050919050565b600082825260208201905092915050565b60005b83811015620002c0578082015181840152602081019050620002a3565b83811115620002d0576000848401525b50505050565b6000601f19601f8301169050919050565b6000620002f48262000284565b6200030081856200028f565b935062000312818560208601620002a0565b6200031d81620002d6565b840191505092915050565b60006020820190508181036000830152620003448184620002e7565b905092915050565b7f4e487b7100000000000000000000000000000000000000000000000000000000600052602260045260246000fd5b600060028204905060018216806200039457607f821691505b60208210811415620003ab57620003aa6200034c565b5b50919050565b612fb980620003c16000396000f3fe608060405234801561001057600080fd5b50600436106100f55760003560e01c806370a0823111610097578063b88d4fde11610066578063b88d4fde14610284578063c87b56dd146102a0578063e985e9c5146102d0578063eb00195d14610300576100f5565b806370a08231146101fc57806395d89b411461022c5780639b8ab6911461024a578063a22cb46514610268576100f5565b8063095ea7b3116100d3578063095ea7b31461017857806323b872dd1461019457806342842e0e146101b05780636352211e146101cc576100f5565b806301ffc9a7146100fa57806306fdde031461012a578063081812fc14610148575b600080fd5b610114600480360381019061010f9190611bce565b61031c565b6040516101219190611c16565b60405180910390f35b6101326103fe565b60405161013f9190611cca565b60405180910390f35b610162600480360381019061015d9190611d22565b610490565b60405161016f9190611d90565b60405180910390f35b610192600480360381019061018d9190611dd7565b6104d6565b005b6101ae60048036038101906101a99190611e17565b6105ee565b005b6101ca60048036038101906101c59190611e17565b61064e565b005b6101e660048036038101906101e19190611d22565b61066e565b6040516101f39190611d90565b60405180910390f35b61021660048036038101906102119190611e6a565b610720565b6040516102239190611ea6565b60405180910390f35b6102346107d8565b6040516102419190611cca565b60405180910390f35b61025261086a565b60405161025f9190611ea6565b60405180910390f35b610282600480360381019061027d9190611eed565b610880565b005b61029e60048036038101906102999190612062565b610896565b005b6102ba60048036038101906102b59190611d22565b6108f8565b6040516102c79190611cca565b60405180910390f35b6102ea60048036038101906102e591906120e5565b6109a8565b6040516102f79190611c16565b60405180910390f35b61031a600480360381019061031591906121c6565b610a3c565b005b60007f80ac58cd000000000000000000000000000000000000000000000000000000007bffffffffffffffffffffffffffffffffffffffffffffffffffffffff1916827bffffffffffffffffffffffffffffffffffffffffffffffffffffffff191614806103e757507f5b5e139f000000000000000000000000000000000000000000000000000000007bffffffffffffffffffffffffffffffffffffffffffffffffffffffff1916827bffffffffffffffffffffffffffffffffffffffffffffffffffffffff1916145b806103f757506103f682610c1c565b5b9050919050565b60606000805461040d9061226d565b80601f01602080910402602001604051908101604052809291908181526020018280546104399061226d565b80156104865780601f1061045b57610100808354040283529160200191610486565b820191906000526020600020905b81548152906001019060200180831161046957829003601f168201915b5050505050905090565b600061049b82610c86565b6004600083815260200190815260200160002060009054906101000a900473ffffffffffffffffffffffffffffffffffffffff169050919050565b60006104e18261066e565b90508073ffffffffffffffffffffffffffffffffffffffff168373ffffffffffffffffffffffffffffffffffffffff161415610552576040517f08c379a000000000000000000000000000000000000000000000000000000000815260040161054990612311565b60405180910390fd5b8073ffffffffffffffffffffffffffffffffffffffff16610571610cd1565b73ffffffffffffffffffffffffffffffffffffffff1614806105a0575061059f8161059a610cd1565b6109a8565b5b6105df576040517f08c379a00000000000000000000000000000000000000000000000000000000081526004016105d6906123a3565b60405180910390fd5b6105e98383610cd9565b505050565b6105ff6105f9610cd1565b82610d92565b61063e576040517f08c379a000000000000000000000000000000000000000000000000000000000815260040161063590612435565b60405180910390fd5b610649838383610e27565b505050565b61066983838360405180602001604052806000815250610896565b505050565b6000806002600084815260200190815260200160002060009054906101000a900473ffffffffffffffffffffffffffffffffffffffff169050600073ffffffffffffffffffffffffffffffffffffffff168173ffffffffffffffffffffffffffffffffffffffff161415610717576040517f08c379a000000000000000000000000000000000000000000000000000000000815260040161070e906124a1565b60405180910390fd5b80915050919050565b60008073ffffffffffffffffffffffffffffffffffffffff168273ffffffffffffffffffffffffffffffffffffffff161415610791576040517f08c379a000000000000000000000000000000000000000000000000000000000815260040161078890612533565b60405180910390fd5b600360008373ffffffffffffffffffffffffffffffffffffffff1673ffffffffffffffffffffffffffffffffffffffff168152602001908152602001600020549050919050565b6060600180546107e79061226d565b80601f01602080910402602001604051908101604052809291908181526020018280546108139061226d565b80156108605780601f1061083557610100808354040283529160200191610860565b820191906000526020600020905b81548152906001019060200180831161084357829003601f168201915b5050505050905090565b600080610877600861108e565b90508091505090565b61089261088b610cd1565b838361109c565b5050565b6108a76108a1610cd1565b83610d92565b6108e6576040517f08c379a00000000000000000000000000000000000000000000000000000000081526004016108dd90612435565b60405180910390fd5b6108f284848484611209565b50505050565b606060006109786007848154811061091357610912612553565b5b906000526020600020906002020160000161092d85611265565b6007868154811061094157610940612553565b5b9060005260206000209060020201600101604051602001610964939291906127a8565b6040516020818303038152906040526113c6565b905060008160405160200161098d9190612851565b60405160208183030381529060405290508092505050919050565b6000600560008473ffffffffffffffffffffffffffffffffffffffff1673ffffffffffffffffffffffffffffffffffffffff16815260200190815260200160002060008373ffffffffffffffffffffffffffffffffffffffff1673ffffffffffffffffffffffffffffffffffffffff16815260200190815260200160002060009054906101000a900460ff16905092915050565b6000610a48600861108e565b90506006548110610a8e576040517f08c379a0000000000000000000000000000000000000000000000000000000008152600401610a85906128bf565b60405180910390fd5b610a98338261155e565b600760405180604001604052808581526020018481525090806001815401808255809150506001900390600052602060002090600202016000909190919091506000820151816000019080519060200190610af4929190611abf565b506020820151816001019080519060200190610b11929190611abf565b505050610b37604051806060016040528060258152602001612f1f60259139823361157c565b610b41600861161b565b7f9e9e101732de0887d722bd72c01c5439edc857c9c2c763953d67e66de12441d33382600654604051610b76939291906128df565b60405180910390a1505050565b610c1981604051602401610b979190611cca565b6040516020818303038152906040527f41304fac000000000000000000000000000000000000000000000000000000007bffffffffffffffffffffffffffffffffffffffffffffffffffffffff19166020820180517bffffffffffffffffffffffffffffffffffffffffffffffffffffffff8381831617835250505050611631565b50565b60007f01ffc9a7000000000000000000000000000000000000000000000000000000007bffffffffffffffffffffffffffffffffffffffffffffffffffffffff1916827bffffffffffffffffffffffffffffffffffffffffffffffffffffffff1916149050919050565b610c8f8161165a565b610cce576040517f08c379a0000000000000000000000000000000000000000000000000000000008152600401610cc5906124a1565b60405180910390fd5b50565b600033905090565b816004600083815260200190815260200160002060006101000a81548173ffffffffffffffffffffffffffffffffffffffff021916908373ffffffffffffffffffffffffffffffffffffffff160217905550808273ffffffffffffffffffffffffffffffffffffffff16610d4c8361066e565b73ffffffffffffffffffffffffffffffffffffffff167f8c5be1e5ebec7d5bd14f71427d1e84f3dd0314c0f7b2291e5b200ac8c7c3b92560405160405180910390a45050565b600080610d9e8361066e565b90508073ffffffffffffffffffffffffffffffffffffffff168473ffffffffffffffffffffffffffffffffffffffff161480610de05750610ddf81856109a8565b5b80610e1e57508373ffffffffffffffffffffffffffffffffffffffff16610e0684610490565b73ffffffffffffffffffffffffffffffffffffffff16145b91505092915050565b8273ffffffffffffffffffffffffffffffffffffffff16610e478261066e565b73ffffffffffffffffffffffffffffffffffffffff1614610e9d576040517f08c379a0000000000000000000000000000000000000000000000000000000008152600401610e9490612988565b60405180910390fd5b600073ffffffffffffffffffffffffffffffffffffffff168273ffffffffffffffffffffffffffffffffffffffff161415610f0d576040517f08c379a0000000000000000000000000000000000000000000000000000000008152600401610f0490612a1a565b60405180910390fd5b610f188383836116c6565b610f23600082610cd9565b6001600360008573ffffffffffffffffffffffffffffffffffffffff1673ffffffffffffffffffffffffffffffffffffffff1681526020019081526020016000206000828254610f739190612a69565b925050819055506001600360008473ffffffffffffffffffffffffffffffffffffffff1673ffffffffffffffffffffffffffffffffffffffff1681526020019081526020016000206000828254610fca9190612a9d565b92505081905550816002600083815260200190815260200160002060006101000a81548173ffffffffffffffffffffffffffffffffffffffff021916908373ffffffffffffffffffffffffffffffffffffffff160217905550808273ffffffffffffffffffffffffffffffffffffffff168473ffffffffffffffffffffffffffffffffffffffff167fddf252ad1be2c89b69c2b068fc378daa952ba7f163c4a11628f55a4df523b3ef60405160405180910390a46110898383836116cb565b505050565b600081600001549050919050565b8173ffffffffffffffffffffffffffffffffffffffff168373ffffffffffffffffffffffffffffffffffffffff16141561110b576040517f08c379a000000000000000000000000000000000000000000000000000000000815260040161110290612b3f565b60405180910390fd5b80600560008573ffffffffffffffffffffffffffffffffffffffff1673ffffffffffffffffffffffffffffffffffffffff16815260200190815260200160002060008473ffffffffffffffffffffffffffffffffffffffff1673ffffffffffffffffffffffffffffffffffffffff16815260200190815260200160002060006101000a81548160ff0219169083151502179055508173ffffffffffffffffffffffffffffffffffffffff168373ffffffffffffffffffffffffffffffffffffffff167f17307eab39ab6107e8899845ad3d59bd9653f200f220920489ca2b5937696c31836040516111fc9190611c16565b60405180910390a3505050565b611214848484610e27565b611220848484846116d0565b61125f576040517f08c379a000000000000000000000000000000000000000000000000000000000815260040161125690612bd1565b60405180910390fd5b50505050565b606060008214156112ad576040518060400160405280600181526020017f300000000000000000000000000000000000000000000000000000000000000081525090506113c1565b600082905060005b600082146112df5780806112c890612bf1565b915050600a826112d89190612c69565b91506112b5565b60008167ffffffffffffffff8111156112fb576112fa611f37565b5b6040519080825280601f01601f19166020018201604052801561132d5781602001600182028036833780820191505090505b5090505b600085146113ba576001826113469190612a69565b9150600a856113559190612c9a565b60306113619190612a9d565b60f81b81838151811061137757611376612553565b5b60200101907effffffffffffffffffffffffffffffffffffffffffffffffffffffffffffff1916908160001a905350600a856113b39190612c69565b9450611331565b8093505050505b919050565b606060008251905060008114156113ef5760405180602001604052806000815250915050611559565b600060036002836114009190612a9d565b61140a9190612c69565b60046114169190612ccb565b905060006020826114279190612a9d565b67ffffffffffffffff8111156114405761143f611f37565b5b6040519080825280601f01601f1916602001820160405280156114725781602001600182028036833780820191505090505b5090506000604051806060016040528060408152602001612f44604091399050600181016020830160005b868110156115165760038101905062ffffff818a015116603f8160121c168401518060081b905060ff603f83600c1c1686015116810190508060081b905060ff603f8360061c1686015116810190508060081b905060ff603f831686015116810190508060e01b9050808452600484019350505061149d565b50600386066001811461153057600281146115405761154b565b613d3d60f01b600283035261154b565b603d60f81b60018303525b508484525050819450505050505b919050565b611578828260405180602001604052806000815250611867565b5050565b61161683838360405160240161159493929190612d25565b6040516020818303038152906040527fe3849f79000000000000000000000000000000000000000000000000000000007bffffffffffffffffffffffffffffffffffffffffffffffffffffffff19166020820180517bffffffffffffffffffffffffffffffffffffffffffffffffffffffff8381831617835250505050611631565b505050565b6001816000016000828254019250508190555050565b60008151905060006a636f6e736f6c652e6c6f679050602083016000808483855afa5050505050565b60008073ffffffffffffffffffffffffffffffffffffffff166002600084815260200190815260200160002060009054906101000a900473ffffffffffffffffffffffffffffffffffffffff1673ffffffffffffffffffffffffffffffffffffffff1614159050919050565b505050565b505050565b60006116f18473ffffffffffffffffffffffffffffffffffffffff166118c2565b1561185a578373ffffffffffffffffffffffffffffffffffffffff1663150b7a0261171a610cd1565b8786866040518563ffffffff1660e01b815260040161173c9493929190612db8565b602060405180830381600087803b15801561175657600080fd5b505af192505050801561178757506040513d601f19601f820116820180604052508101906117849190612e19565b60015b61180a573d80600081146117b7576040519150601f19603f3d011682016040523d82523d6000602084013e6117bc565b606091505b50600081511415611802576040517f08c379a00000000000000000000000000000000000000000000000000000000081526004016117f990612bd1565b60405180910390fd5b805181602001fd5b63150b7a0260e01b7bffffffffffffffffffffffffffffffffffffffffffffffffffffffff1916817bffffffffffffffffffffffffffffffffffffffffffffffffffffffff19161491505061185f565b600190505b949350505050565b61187183836118e5565b61187e60008484846116d0565b6118bd576040517f08c379a00000000000000000000000000000000000000000000000000000000081526004016118b490612bd1565b60405180910390fd5b505050565b6000808273ffffffffffffffffffffffffffffffffffffffff163b119050919050565b600073ffffffffffffffffffffffffffffffffffffffff168273ffffffffffffffffffffffffffffffffffffffff161415611955576040517f08c379a000000000000000000000000000000000000000000000000000000000815260040161194c90612e92565b60405180910390fd5b61195e8161165a565b1561199e576040517f08c379a000000000000000000000000000000000000000000000000000000000815260040161199590612efe565b60405180910390fd5b6119aa600083836116c6565b6001600360008473ffffffffffffffffffffffffffffffffffffffff1673ffffffffffffffffffffffffffffffffffffffff16815260200190815260200160002060008282546119fa9190612a9d565b92505081905550816002600083815260200190815260200160002060006101000a81548173ffffffffffffffffffffffffffffffffffffffff021916908373ffffffffffffffffffffffffffffffffffffffff160217905550808273ffffffffffffffffffffffffffffffffffffffff16600073ffffffffffffffffffffffffffffffffffffffff167fddf252ad1be2c89b69c2b068fc378daa952ba7f163c4a11628f55a4df523b3ef60405160405180910390a4611abb600083836116cb565b5050565b828054611acb9061226d565b90600052602060002090601f016020900481019282611aed5760008555611b34565b82601f10611b0657805160ff1916838001178555611b34565b82800160010185558215611b34579182015b82811115611b33578251825591602001919060010190611b18565b5b509050611b419190611b45565b5090565b5b80821115611b5e576000816000905550600101611b46565b5090565b6000604051905090565b600080fd5b600080fd5b60007fffffffff0000000000000000000000000000000000000000000000000000000082169050919050565b611bab81611b76565b8114611bb657600080fd5b50565b600081359050611bc881611ba2565b92915050565b600060208284031215611be457611be3611b6c565b5b6000611bf284828501611bb9565b91505092915050565b60008115159050919050565b611c1081611bfb565b82525050565b6000602082019050611c2b6000830184611c07565b92915050565b600081519050919050565b600082825260208201905092915050565b60005b83811015611c6b578082015181840152602081019050611c50565b83811115611c7a576000848401525b50505050565b6000601f19601f8301169050919050565b6000611c9c82611c31565b611ca68185611c3c565b9350611cb6818560208601611c4d565b611cbf81611c80565b840191505092915050565b60006020820190508181036000830152611ce48184611c91565b905092915050565b6000819050919050565b611cff81611cec565b8114611d0a57600080fd5b50565b600081359050611d1c81611cf6565b92915050565b600060208284031215611d3857611d37611b6c565b5b6000611d4684828501611d0d565b91505092915050565b600073ffffffffffffffffffffffffffffffffffffffff82169050919050565b6000611d7a82611d4f565b9050919050565b611d8a81611d6f565b82525050565b6000602082019050611da56000830184611d81565b92915050565b611db481611d6f565b8114611dbf57600080fd5b50565b600081359050611dd181611dab565b92915050565b60008060408385031215611dee57611ded611b6c565b5b6000611dfc85828601611dc2565b9250506020611e0d85828601611d0d565b9150509250929050565b600080600060608486031215611e3057611e2f611b6c565b5b6000611e3e86828701611dc2565b9350506020611e4f86828701611dc2565b9250506040611e6086828701611d0d565b9150509250925092565b600060208284031215611e8057611e7f611b6c565b5b6000611e8e84828501611dc2565b91505092915050565b611ea081611cec565b82525050565b6000602082019050611ebb6000830184611e97565b92915050565b611eca81611bfb565b8114611ed557600080fd5b50565b600081359050611ee781611ec1565b92915050565b60008060408385031215611f0457611f03611b6c565b5b6000611f1285828601611dc2565b9250506020611f2385828601611ed8565b9150509250929050565b600080fd5b600080fd5b7f4e487b7100000000000000000000000000000000000000000000000000000000600052604160045260246000fd5b611f6f82611c80565b810181811067ffffffffffffffff82111715611f8e57611f8d611f37565b5b80604052505050565b6000611fa1611b62565b9050611fad8282611f66565b919050565b600067ffffffffffffffff821115611fcd57611fcc611f37565b5b611fd682611c80565b9050602081019050919050565b82818337600083830152505050565b600061200561200084611fb2565b611f97565b90508281526020810184848401111561202157612020611f32565b5b61202c848285611fe3565b509392505050565b600082601f83011261204957612048611f2d565b5b8135612059848260208601611ff2565b91505092915050565b6000806000806080858703121561207c5761207b611b6c565b5b600061208a87828801611dc2565b945050602061209b87828801611dc2565b93505060406120ac87828801611d0d565b925050606085013567ffffffffffffffff8111156120cd576120cc611b71565b5b6120d987828801612034565b91505092959194509250565b600080604083850312156120fc576120fb611b6c565b5b600061210a85828601611dc2565b925050602061211b85828601611dc2565b9150509250929050565b600067ffffffffffffffff8211156121405761213f611f37565b5b61214982611c80565b9050602081019050919050565b600061216961216484612125565b611f97565b90508281526020810184848401111561218557612184611f32565b5b612190848285611fe3565b509392505050565b600082601f8301126121ad576121ac611f2d565b5b81356121bd848260208601612156565b91505092915050565b600080604083850312156121dd576121dc611b6c565b5b600083013567ffffffffffffffff8111156121fb576121fa611b71565b5b61220785828601612198565b925050602083013567ffffffffffffffff81111561222857612227611b71565b5b61223485828601612198565b9150509250929050565b7f4e487b7100000000000000000000000000000000000000000000000000000000600052602260045260246000fd5b6000600282049050600182168061228557607f821691505b602082108114156122995761229861223e565b5b50919050565b7f4552433732313a20617070726f76616c20746f2063757272656e74206f776e6560008201527f7200000000000000000000000000000000000000000000000000000000000000602082015250565b60006122fb602183611c3c565b91506123068261229f565b604082019050919050565b6000602082019050818103600083015261232a816122ee565b9050919050565b7f4552433732313a20617070726f76652063616c6c6572206973206e6f7420746f60008201527f6b656e206f776e6572206e6f7220617070726f76656420666f7220616c6c0000602082015250565b600061238d603e83611c3c565b915061239882612331565b604082019050919050565b600060208201905081810360008301526123bc81612380565b9050919050565b7f4552433732313a2063616c6c6572206973206e6f7420746f6b656e206f776e6560008201527f72206e6f7220617070726f766564000000000000000000000000000000000000602082015250565b600061241f602e83611c3c565b915061242a826123c3565b604082019050919050565b6000602082019050818103600083015261244e81612412565b9050919050565b7f4552433732313a20696e76616c696420746f6b656e2049440000000000000000600082015250565b600061248b601883611c3c565b915061249682612455565b602082019050919050565b600060208201905081810360008301526124ba8161247e565b9050919050565b7f4552433732313a2061646472657373207a65726f206973206e6f74206120766160008201527f6c6964206f776e65720000000000000000000000000000000000000000000000602082015250565b600061251d602983611c3c565b9150612528826124c1565b604082019050919050565b6000602082019050818103600083015261254c81612510565b9050919050565b7f4e487b7100000000000000000000000000000000000000000000000000000000600052603260045260246000fd5b600081905092915050565b7f7b226e616d65223a202200000000000000000000000000000000000000000000600082015250565b60006125c3600a83612582565b91506125ce8261258d565b600a82019050919050565b60008190508160005260206000209050919050565b600081546125fb8161226d565b6126058186612582565b94506001821660008114612620576001811461263157612664565b60ff19831686528186019350612664565b61263a856125d9565b60005b8381101561265c5781548189015260018201915060208101905061263d565b838801955050505b50505092915050565b7f202d2d204e465420233a20000000000000000000000000000000000000000000600082015250565b60006126a3600b83612582565b91506126ae8261266d565b600b82019050919050565b60006126c482611c31565b6126ce8185612582565b93506126de818560208601611c4d565b80840191505092915050565b7f222c20226465736372697074696f6e223a2022416e2065706963204e4654222c60008201527f2022696d616765223a2022697066733a2f2f0000000000000000000000000000602082015250565b6000612746603283612582565b9150612751826126ea565b603282019050919050565b7f227d000000000000000000000000000000000000000000000000000000000000600082015250565b6000612792600283612582565b915061279d8261275c565b600282019050919050565b60006127b3826125b6565b91506127bf82866125ee565b91506127ca82612696565b91506127d682856126b9565b91506127e182612739565b91506127ed82846125ee565b91506127f882612785565b9150819050949350505050565b7f646174613a6170706c69636174696f6e2f6a736f6e3b6261736536342c000000600082015250565b600061283b601d83612582565b915061284682612805565b601d82019050919050565b600061285c8261282e565b915061286882846126b9565b915081905092915050565b7f4f766572206d6178496400000000000000000000000000000000000000000000600082015250565b60006128a9600a83611c3c565b91506128b482612873565b602082019050919050565b600060208201905081810360008301526128d88161289c565b9050919050565b60006060820190506128f46000830186611d81565b6129016020830185611e97565b61290e6040830184611e97565b949350505050565b7f4552433732313a207472616e736665722066726f6d20696e636f72726563742060008201527f6f776e6572000000000000000000000000000000000000000000000000000000602082015250565b6000612972602583611c3c565b915061297d82612916565b604082019050919050565b600060208201905081810360008301526129a181612965565b9050919050565b7f4552433732313a207472616e7366657220746f20746865207a65726f2061646460008201527f7265737300000000000000000000000000000000000000000000000000000000602082015250565b6000612a04602483611c3c565b9150612a0f826129a8565b604082019050919050565b60006020820190508181036000830152612a33816129f7565b9050919050565b7f4e487b7100000000000000000000000000000000000000000000000000000000600052601160045260246000fd5b6000612a7482611cec565b9150612a7f83611cec565b925082821015612a9257612a91612a3a565b5b828203905092915050565b6000612aa882611cec565b9150612ab383611cec565b9250827fffffffffffffffffffffffffffffffffffffffffffffffffffffffffffffffff03821115612ae857612ae7612a3a565b5b828201905092915050565b7f4552433732313a20617070726f766520746f2063616c6c657200000000000000600082015250565b6000612b29601983611c3c565b9150612b3482612af3565b602082019050919050565b60006020820190508181036000830152612b5881612b1c565b9050919050565b7f4552433732313a207472616e7366657220746f206e6f6e20455243373231526560008201527f63656976657220696d706c656d656e7465720000000000000000000000000000602082015250565b6000612bbb603283611c3c565b9150612bc682612b5f565b604082019050919050565b60006020820190508181036000830152612bea81612bae565b9050919050565b6000612bfc82611cec565b91507fffffffffffffffffffffffffffffffffffffffffffffffffffffffffffffffff821415612c2f57612c2e612a3a565b5b600182019050919050565b7f4e487b7100000000000000000000000000000000000000000000000000000000600052601260045260246000fd5b6000612c7482611cec565b9150612c7f83611cec565b925082612c8f57612c8e612c3a565b5b828204905092915050565b6000612ca582611cec565b9150612cb083611cec565b925082612cc057612cbf612c3a565b5b828206905092915050565b6000612cd682611cec565b9150612ce183611cec565b9250817fffffffffffffffffffffffffffffffffffffffffffffffffffffffffffffffff0483118215151615612d1a57612d19612a3a565b5b828202905092915050565b60006060820190508181036000830152612d3f8186611c91565b9050612d4e6020830185611e97565b612d5b6040830184611d81565b949350505050565b600081519050919050565b600082825260208201905092915050565b6000612d8a82612d63565b612d948185612d6e565b9350612da4818560208601611c4d565b612dad81611c80565b840191505092915050565b6000608082019050612dcd6000830187611d81565b612dda6020830186611d81565b612de76040830185611e97565b8181036060830152612df98184612d7f565b905095945050505050565b600081519050612e1381611ba2565b92915050565b600060208284031215612e2f57612e2e611b6c565b5b6000612e3d84828501612e04565b91505092915050565b7f4552433732313a206d696e7420746f20746865207a65726f2061646472657373600082015250565b6000612e7c602083611c3c565b9150612e8782612e46565b602082019050919050565b60006020820190508181036000830152612eab81612e6f565b9050919050565b7f4552433732313a20746f6b656e20616c7265616479206d696e74656400000000600082015250565b6000612ee8601c83611c3c565b9150612ef382612eb2565b602082019050919050565b60006020820190508181036000830152612f1781612edb565b905091905056fe416e204e465420772f20494420257320686173206265656e206d696e74656420746f2025734142434445464748494a4b4c4d4e4f505152535455565758595a6162636465666768696a6b6c6d6e6f707172737475767778797a303132333435363738392b2fa2646970667358221220760663a0fc030686b619a52b56712418c866f3c79b49c4ef88ce9fbf2937cd1e64736f6c63430008090033",
  "linkReferences": {},
  "deployedLinkReferences": {}
}